{
  "contractName": "Enroll",
  "abi": [
    {
      "inputs": [],
      "stateMutability": "nonpayable",
      "type": "constructor"
    },
    {
      "inputs": [],
      "name": "call2",
      "outputs": [
        {
          "internalType": "uint256",
          "name": "",
          "type": "uint256"
        }
      ],
      "stateMutability": "view",
      "type": "function",
      "constant": true
    },
    {
      "inputs": [
        {
          "internalType": "address",
          "name": "user",
          "type": "address"
        },
        {
          "internalType": "uint256",
          "name": "sub",
          "type": "uint256"
        }
      ],
      "name": "select",
      "outputs": [],
      "stateMutability": "nonpayable",
      "type": "function"
    },
    {
      "inputs": [
        {
          "internalType": "uint256",
          "name": "sub",
          "type": "uint256"
        }
      ],
      "name": "show",
      "outputs": [
        {
          "internalType": "uint256",
          "name": "",
          "type": "uint256"
        }
      ],
      "stateMutability": "view",
      "type": "function",
      "constant": true
    }
  ],
  "bytecode": "0x60806040526103e860055534801561001657600080fd5b506105e9806100266000396000f3fe608060405234801561001057600080fd5b506004361061005e576000357c01000000000000000000000000000000000000000000000000000000009004806315998874146100635780638b514ed714610081578063c21f7bbb146100b1575b600080fd5b61006b6100cd565b60405161007891906103ce565b60405180910390f35b61009b6004803603810190610096919061041a565b6100d7565b6040516100a891906103ce565b60405180910390f35b6100cb60048036038101906100c691906104a5565b61012f565b005b6000600554905090565b600060018214156100ec57600154905061012a565b60028214156100ff57600254905061012a565b600382141561011257600354905061012a565b600482141561012557600454905061012a565b600a90505b919050565b60008060008473ffffffffffffffffffffffffffffffffffffffff1673ffffffffffffffffffffffffffffffffffffffff16815260200190815260200160002060008381526020019081526020016000205414156103b157600181141561021457600160008154809291906101a390610514565b919050555060016000808473ffffffffffffffffffffffffffffffffffffffff1673ffffffffffffffffffffffffffffffffffffffff16815260200190815260200160002060008381526020019081526020016000206000828254610208919061055d565b925050819055506103b0565b60028114156102a1576002600081548092919061023090610514565b919050555060016000808473ffffffffffffffffffffffffffffffffffffffff1673ffffffffffffffffffffffffffffffffffffffff16815260200190815260200160002060008381526020019081526020016000206000828254610295919061055d565b925050819055506103af565b600381141561032e57600360008154809291906102bd90610514565b919050555060016000808473ffffffffffffffffffffffffffffffffffffffff1673ffffffffffffffffffffffffffffffffffffffff16815260200190815260200160002060008381526020019081526020016000206000828254610322919061055d565b925050819055506103ae565b6004600081548092919061034190610514565b919050555060016000808473ffffffffffffffffffffffffffffffffffffffff1673ffffffffffffffffffffffffffffffffffffffff168152602001908152602001600020600083815260200190815260200160002060008282546103a6919061055d565b925050819055505b5b5b5b5050565b6000819050919050565b6103c8816103b5565b82525050565b60006020820190506103e360008301846103bf565b92915050565b600080fd5b6103f7816103b5565b811461040257600080fd5b50565b600081359050610414816103ee565b92915050565b6000602082840312156104305761042f6103e9565b5b600061043e84828501610405565b91505092915050565b600073ffffffffffffffffffffffffffffffffffffffff82169050919050565b600061047282610447565b9050919050565b61048281610467565b811461048d57600080fd5b50565b60008135905061049f81610479565b92915050565b600080604083850312156104bc576104bb6103e9565b5b60006104ca85828601610490565b92505060206104db85828601610405565b9150509250929050565b7f4e487b7100000000000000000000000000000000000000000000000000000000600052601160045260246000fd5b600061051f826103b5565b91507fffffffffffffffffffffffffffffffffffffffffffffffffffffffffffffffff821415610552576105516104e5565b5b600182019050919050565b6000610568826103b5565b9150610573836103b5565b9250827fffffffffffffffffffffffffffffffffffffffffffffffffffffffffffffffff038211156105a8576105a76104e5565b5b82820190509291505056fea26469706673582212209ca0318fe7ccc17b1d5768dccee80a015c33ccb7a8f86b7924bf47fb453adad564736f6c63430008090033",
  "immutableReferences": {},
  "source": "// SPDX-License-Identifier: UNLICENSED\r\npragma solidity ^0.8.9;\r\n\r\ncontract Enroll{\r\n    mapping(address => mapping(uint => uint)) subject;\r\n    uint bc;\r\n    uint nlp;\r\n    uint mv;\r\n    uint ai;\r\n    uint some = 1000;\r\n\r\n    constructor(){\r\n        \r\n    }\r\n\r\n    function call2() public view returns(uint){\r\n        return some;\r\n    }\r\n    \r\n    function select(address user,uint sub) public {\r\n        if(subject[user][sub] == 0){\r\n            if(sub == 1){\r\n                bc++;\r\n                subject[user][sub] += 1;\r\n            }else if(sub == 2){\r\n                nlp++;\r\n                subject[user][sub] += 1;\r\n            }else if(sub == 3){\r\n                mv++;\r\n                subject[user][sub] += 1;\r\n            }else{\r\n                ai++;\r\n                subject[user][sub] += 1;\r\n            }\r\n        }\r\n    }\r\n    \r\n    function show(uint sub) public view returns(uint){\r\n        if(sub == 1){\r\n            return bc;\r\n        }else if(sub == 2){\r\n            return nlp;\r\n        }else if(sub == 3){\r\n            return mv;\r\n        }else if(sub == 4){\r\n            return ai;\r\n        }else{\r\n            return 10;\r\n        }\r\n    }\r\n}",
  "sourcePath": "C:\\Users\\mohit\\Desktop\\React Apps\\Blockchain Project\\course-registration\\contracts\\Enroll.sol",
  "compiler": {
    "name": "solc",
    "version": "0.8.9+commit.e5eed63a.Emscripten.clang"
  },
  "schemaVersion": "3.4.10",
  "updatedAt": "2022-10-24T04:09:22.526Z",
  "networkType": "ethereum",
  "devdoc": {
    "kind": "dev",
    "methods": {},
    "version": 1
  },
  "userdoc": {
    "kind": "user",
    "methods": {},
    "version": 1
  }
}